{"contracts/ProductValidation.sol":{"ProductValidation":{"abi":[{"inputs":[{"internalType":"address payable","name":"_trustedParty","type":"address"},{"internalType":"uint256","name":"_currentIndustryId","type":"uint256"},{"internalType":"uint256","name":"_currentProductId","type":"uint256"}],"stateMutability":"nonpayable","type":"constructor"},{"anonymous":false,"inputs":[{"indexed":false,"internalType":"uint256","name":"insdustryId","type":"uint256"},{"indexed":false,"internalType":"string","name":"insdustryName","type":"string"},{"indexed":false,"internalType":"uint256","name":"insdustryID","type":"uint256"},{"indexed":false,"internalType":"address payable","name":"industryWalletAddress","type":"address"}],"name":"industryAdded","type":"event"},{"anonymous":false,"inputs":[{"indexed":false,"internalType":"uint256","name":"foodID","type":"uint256"},{"indexed":false,"internalType":"string","name":"productExpiurationDate","type":"string"},{"indexed":false,"internalType":"string","name":"nameOfOwner","type":"string"},{"indexed":false,"internalType":"uint256","name":"productAmount","type":"uint256"},{"indexed":false,"internalType":"uint256","name":"currentProductId","type":"uint256"},{"indexed":false,"internalType":"address","name":"addedBy","type":"address"}],"name":"productAdded","type":"event"},{"inputs":[{"internalType":"uint256","name":"_insdustryId","type":"uint256"},{"internalType":"string","name":"_insdustryName","type":"string"},{"internalType":"address payable","name":"_trustedParty","type":"address"},{"internalType":"address payable","name":"_industryWalletAddress","type":"address"}],"name":"createindustry","outputs":[{"internalType":"string","name":"","type":"string"}],"stateMutability":"payable","type":"function"},{"inputs":[],"name":"currentIndustryId","outputs":[{"internalType":"uint256","name":"","type":"uint256"}],"stateMutability":"view","type":"function"},{"inputs":[],"name":"currentProductId","outputs":[{"internalType":"uint256","name":"","type":"uint256"}],"stateMutability":"view","type":"function"},{"inputs":[{"internalType":"address","name":"","type":"address"}],"name":"industry","outputs":[{"internalType":"uint256","name":"insdustryId","type":"uint256"},{"internalType":"string","name":"insdustryName","type":"string"},{"internalType":"uint256","name":"insdustryID","type":"uint256"},{"internalType":"address payable","name":"industryWalletAddress","type":"address"}],"stateMutability":"view","type":"function"},{"inputs":[{"internalType":"uint256","name":"","type":"uint256"}],"name":"industryAddress","outputs":[{"internalType":"address","name":"","type":"address"}],"stateMutability":"view","type":"function"},{"inputs":[{"internalType":"uint256","name":"","type":"uint256"}],"name":"productInfo","outputs":[{"internalType":"uint256","name":"foodId","type":"uint256"},{"internalType":"string","name":"productExpiurationDate","type":"string"},{"internalType":"string","name":"nameOfOwner","type":"string"},{"internalType":"uint256","name":"productAmount","type":"uint256"},{"internalType":"uint256","name":"currentProductId","type":"uint256"},{"internalType":"address","name":"addedBy","type":"address"}],"stateMutability":"view","type":"function"},{"inputs":[{"internalType":"uint256","name":"_foodId","type":"uint256"},{"internalType":"string","name":"_productExpiurationDate","type":"string"},{"internalType":"string","name":"_nameOfOwner","type":"string"},{"internalType":"uint256","name":"_productAmount","type":"uint256"},{"internalType":"address payable","name":"_industryWalletAddress","type":"address"}],"name":"storeProductInfo","outputs":[{"internalType":"string","name":"","type":"string"}],"stateMutability":"payable","type":"function"}],"devdoc":{"kind":"dev","methods":{},"version":1},"evm":{"bytecode":{"linkReferences":{},"object":"608060405234801561001057600080fd5b506040516112ff3803806112ff83398101604081905261002f9161005b565b600280546001600160a01b0319166001600160a01b03949094169390931790925560005560015561009c565b60008060006060848603121561006f578283fd5b83516001600160a01b0381168114610085578384fd5b602085015160409095015190969495509392505050565b611254806100ab6000396000f3fe6080604052600436106100705760003560e01c8063b38a8e651161004e578063b38a8e65146100f9578063bb119f6e14610119578063cf4532d01461014b578063f8b379221461017b57600080fd5b8063524196ec1461007557806359feefb71461009e578063a0e5964b146100e3575b600080fd5b34801561008157600080fd5b5061008b60005481565b6040519081526020015b60405180910390f35b3480156100aa57600080fd5b506100be6100b9366004610e95565b61018e565b60405173ffffffffffffffffffffffffffffffffffffffff9091168152602001610095565b3480156100ef57600080fd5b5061008b60015481565b61010c610107366004610f17565b6101c5565b6040516100959190611009565b34801561012557600080fd5b50610139610134366004610e95565b610410565b6040516100959695949392919061101c565b34801561015757600080fd5b5061016b610166366004610e72565b61056d565b604051610095949392919061107c565b61010c610189366004610ead565b610635565b6003818154811061019e57600080fd5b60009182526020909120015473ffffffffffffffffffffffffffffffffffffffff16905081565b606081803b1561025c576040517f08c379a000000000000000000000000000000000000000000000000000000000815260206004820152602960248201527f547275737465642070617274792077616c6c657420616464726573732069732060448201527f6e6f742076616c6964000000000000000000000000000000000000000000000060648201526084015b60405180910390fd5b61026533610b5f565b6102f0576040517f08c379a0000000000000000000000000000000000000000000000000000000008152602060048201526024808201527f596f7520646f6e277420686176652061636365737320746f206164642070726f60448201527f64756374000000000000000000000000000000000000000000000000000000006064820152608401610253565b600180600082825461030291906110c2565b90915550506000878152600560209081526040909120865161032c92600290920191880190610d34565b50600087815260056020908152604090912088815560038101869055875161035c92600190920191890190610d34565b506001805460008981526005602081905260409182902060048101939093559190910180547fffffffffffffffffffffffff00000000000000000000000000000000000000001633908117909155915490517fbbed7f49f072220e395de941dfbf585236440f79095c90c1f6fb536c4ab5c043926103e4928b928b928b928b9290919061101c565b60405180910390a16040518060800160405280604381526020016111a860439139979650505050505050565b60056020526000908152604090208054600182018054919291610432906110ff565b80601f016020809104026020016040519081016040528092919081815260200182805461045e906110ff565b80156104ab5780601f10610480576101008083540402835291602001916104ab565b820191906000526020600020905b81548152906001019060200180831161048e57829003601f168201915b5050505050908060020180546104c0906110ff565b80601f01602080910402602001604051908101604052809291908181526020018280546104ec906110ff565b80156105395780601f1061050e57610100808354040283529160200191610539565b820191906000526020600020905b81548152906001019060200180831161051c57829003601f168201915b50505050600383015460048401546005909401549293909290915073ffffffffffffffffffffffffffffffffffffffff1686565b6004602052600090815260409020805460018201805491929161058f906110ff565b80601f01602080910402602001604051908101604052809291908181526020018280546105bb906110ff565b80156106085780601f106105dd57610100808354040283529160200191610608565b820191906000526020600020905b8154815290600101906020018083116105eb57829003601f168201915b50505050600283015460039093015491929173ffffffffffffffffffffffffffffffffffffffff16905084565b60025460609073ffffffffffffffffffffffffffffffffffffffff1633146106df576040517f08c379a000000000000000000000000000000000000000000000000000000000815260206004820152603560248201527f596f7520617265206e6f7420746865207472756573742070617274792e20426560448201527f7474657220747279206e6578742074696d65203a4400000000000000000000006064820152608401610253565b82803b1561076f576040517f08c379a000000000000000000000000000000000000000000000000000000000815260206004820152602960248201527f547275737465642070617274792077616c6c657420616464726573732069732060448201527f6e6f742076616c696400000000000000000000000000000000000000000000006064820152608401610253565b82803b156107ff576040517f08c379a000000000000000000000000000000000000000000000000000000000815260206004820152602960248201527f547275737465642070617274792077616c6c657420616464726573732069732060448201527f6e6f742076616c696400000000000000000000000000000000000000000000006064820152608401610253565b8373ffffffffffffffffffffffffffffffffffffffff168573ffffffffffffffffffffffffffffffffffffffff1614156108bd57604080517f08c379a00000000000000000000000000000000000000000000000000000000081526020600482015260248101919091527f54727573746564207061727479206164647265737320616e6420696e6475737460448201527f72792077616c6c657420616464726573732063616e6e6f742062652073616d656064820152608401610253565b6108c685610c5c565b610952576040517f08c379a000000000000000000000000000000000000000000000000000000000815260206004820152602760248201527f596f7520617265206e6f7420616c6c6f77656420746f2061646420616e79206960448201527f6e647573747279000000000000000000000000000000000000000000000000006064820152608401610253565b73ffffffffffffffffffffffffffffffffffffffff8085166000818152600460205260409020600301549091161415610a0d576040517f08c379a000000000000000000000000000000000000000000000000000000000815260206004820152602b60248201527f5468697320696e64757374727920697320616c7265616479206578697374732060448201527f696e20746865206c6973740000000000000000000000000000000000000000006064820152608401610253565b6001600080828254610a1f91906110c2565b909155505073ffffffffffffffffffffffffffffffffffffffff841660009081526004602090815260409091208881558751610a6392600190920191890190610d34565b506000805473ffffffffffffffffffffffffffffffffffffffff8616808352600460205260408084206002810193909355600392830180547fffffffffffffffffffffffff0000000000000000000000000000000000000000908116841790915583546001810185559385527fc2575a0e9e593c00f959f8c92f12db2869c3395a3b0502d05e2516446f71f85b9093018054909316909117909155905490517fca95f90b7f721f1e8412147adc497446b0dad584df2481cd3e910d66099cb12b91610b33918a918a91899061107c565b60405180910390a16040518060600160405280603481526020016111eb60349139979650505050505050565b73ffffffffffffffffffffffffffffffffffffffff80821660008181526004602052604081206003015490921614610c19576040517f08c379a000000000000000000000000000000000000000000000000000000000815260206004820152602e60248201527f596f7520617265206e6f74207065726d697474656420746f2063616c6c20746860448201527f69732066756e6374696f6e203a440000000000000000000000000000000000006064820152608401610253565b73ffffffffffffffffffffffffffffffffffffffff8083166000818152600460205260409020600301549091161415610c5457506001919050565b506000919050565b60025460009073ffffffffffffffffffffffffffffffffffffffff838116911614610d09576040517f08c379a000000000000000000000000000000000000000000000000000000000815260206004820152602e60248201527f596f7520617265206e6f74207065726d697474656420746f2063616c6c20746860448201527f69732066756e6374696f6e203a440000000000000000000000000000000000006064820152608401610253565b60025473ffffffffffffffffffffffffffffffffffffffff83811691161415610c5457506001919050565b828054610d40906110ff565b90600052602060002090601f016020900481019282610d625760008555610da8565b82601f10610d7b57805160ff1916838001178555610da8565b82800160010185558215610da8579182015b82811115610da8578251825591602001919060010190610d8d565b50610db4929150610db8565b5090565b5b80821115610db45760008155600101610db9565b600082601f830112610ddd578081fd5b813567ffffffffffffffff80821115610df857610df8611153565b604051601f83017fffffffffffffffffffffffffffffffffffffffffffffffffffffffffffffffe0908116603f01168101908282118183101715610e3e57610e3e611153565b81604052838152866020858801011115610e56578485fd5b8360208701602083013792830160200193909352509392505050565b600060208284031215610e83578081fd5b8135610e8e81611182565b9392505050565b600060208284031215610ea6578081fd5b5035919050565b60008060008060808587031215610ec2578283fd5b84359350602085013567ffffffffffffffff811115610edf578384fd5b610eeb87828801610dcd565b9350506040850135610efc81611182565b91506060850135610f0c81611182565b939692955090935050565b600080600080600060a08688031215610f2e578081fd5b85359450602086013567ffffffffffffffff80821115610f4c578283fd5b610f5889838a01610dcd565b95506040880135915080821115610f6d578283fd5b50610f7a88828901610dcd565b935050606086013591506080860135610f9281611182565b809150509295509295909350565b60008151808452815b81811015610fc557602081850181015186830182015201610fa9565b81811115610fd65782602083870101525b50601f017fffffffffffffffffffffffffffffffffffffffffffffffffffffffffffffffe0169290920160200192915050565b602081526000610e8e6020830184610fa0565b86815260c06020820152600061103560c0830188610fa0565b82810360408401526110478188610fa0565b60608401969096525050608081019290925273ffffffffffffffffffffffffffffffffffffffff1660a0909101529392505050565b8481526080602082015260006110956080830186610fa0565b905083604083015273ffffffffffffffffffffffffffffffffffffffff8316606083015295945050505050565b600082198211156110fa577f4e487b710000000000000000000000000000000000000000000000000000000081526011600452602481fd5b500190565b600181811c9082168061111357607f821691505b6020821081141561114d577f4e487b7100000000000000000000000000000000000000000000000000000000600052602260045260246000fd5b50919050565b7f4e487b7100000000000000000000000000000000000000000000000000000000600052604160045260246000fd5b73ffffffffffffffffffffffffffffffffffffffff811681146111a457600080fd5b5056fe5375636365737366756c6c79206164646564207468652070726f6475637420696e666f726d6174696f6e20696e20426c6f636b636861696e2e20436865657273202121496e647573747279207375636365737366756c6c7920616464656420696e20426c6f636b636861696e2e20436865657273202121a26469706673582212206e551c65ae44523d34213282e86e90347de07a684ed8ea24d4f02f3eaf4ea5e964736f6c63430008040033","opcodes":"PUSH1 0x80 PUSH1 0x40 MSTORE CALLVALUE DUP1 ISZERO PUSH2 0x10 JUMPI PUSH1 0x0 DUP1 REVERT JUMPDEST POP PUSH1 0x40 MLOAD PUSH2 0x12FF CODESIZE SUB DUP1 PUSH2 0x12FF DUP4 CODECOPY DUP2 ADD PUSH1 0x40 DUP2 SWAP1 MSTORE PUSH2 0x2F SWAP2 PUSH2 0x5B JUMP JUMPDEST PUSH1 0x2 DUP1 SLOAD PUSH1 0x1 PUSH1 0x1 PUSH1 0xA0 SHL SUB NOT AND PUSH1 0x1 PUSH1 0x1 PUSH1 0xA0 SHL SUB SWAP5 SWAP1 SWAP5 AND SWAP4 SWAP1 SWAP4 OR SWAP1 SWAP3 SSTORE PUSH1 0x0 SSTORE PUSH1 0x1 SSTORE PUSH2 0x9C JUMP JUMPDEST PUSH1 0x0 DUP1 PUSH1 0x0 PUSH1 0x60 DUP5 DUP7 SUB SLT ISZERO PUSH2 0x6F JUMPI DUP3 DUP4 REVERT JUMPDEST DUP4 MLOAD PUSH1 0x1 PUSH1 0x1 PUSH1 0xA0 SHL SUB DUP2 AND DUP2 EQ PUSH2 0x85 JUMPI DUP4 DUP5 REVERT JUMPDEST PUSH1 0x20 DUP6 ADD MLOAD PUSH1 0x40 SWAP1 SWAP6 ADD MLOAD SWAP1 SWAP7 SWAP5 SWAP6 POP SWAP4 SWAP3 POP POP POP JUMP JUMPDEST PUSH2 0x1254 DUP1 PUSH2 0xAB PUSH1 0x0 CODECOPY PUSH1 0x0 RETURN INVALID PUSH1 0x80 PUSH1 0x40 MSTORE PUSH1 0x4 CALLDATASIZE LT PUSH2 0x70 JUMPI PUSH1 0x0 CALLDATALOAD PUSH1 0xE0 SHR DUP1 PUSH4 0xB38A8E65 GT PUSH2 0x4E JUMPI DUP1 PUSH4 0xB38A8E65 EQ PUSH2 0xF9 JUMPI DUP1 PUSH4 0xBB119F6E EQ PUSH2 0x119 JUMPI DUP1 PUSH4 0xCF4532D0 EQ PUSH2 0x14B JUMPI DUP1 PUSH4 0xF8B37922 EQ PUSH2 0x17B JUMPI PUSH1 0x0 DUP1 REVERT JUMPDEST DUP1 PUSH4 0x524196EC EQ PUSH2 0x75 JUMPI DUP1 PUSH4 0x59FEEFB7 EQ PUSH2 0x9E JUMPI DUP1 PUSH4 0xA0E5964B EQ PUSH2 0xE3 JUMPI JUMPDEST PUSH1 0x0 DUP1 REVERT JUMPDEST CALLVALUE DUP1 ISZERO PUSH2 0x81 JUMPI PUSH1 0x0 DUP1 REVERT JUMPDEST POP PUSH2 0x8B PUSH1 0x0 SLOAD DUP2 JUMP JUMPDEST PUSH1 0x40 MLOAD SWAP1 DUP2 MSTORE PUSH1 0x20 ADD JUMPDEST PUSH1 0x40 MLOAD DUP1 SWAP2 SUB SWAP1 RETURN JUMPDEST CALLVALUE DUP1 ISZERO PUSH2 0xAA JUMPI PUSH1 0x0 DUP1 REVERT JUMPDEST POP PUSH2 0xBE PUSH2 0xB9 CALLDATASIZE PUSH1 0x4 PUSH2 0xE95 JUMP JUMPDEST PUSH2 0x18E JUMP JUMPDEST PUSH1 0x40 MLOAD PUSH20 0xFFFFFFFFFFFFFFFFFFFFFFFFFFFFFFFFFFFFFFFF SWAP1 SWAP2 AND DUP2 MSTORE PUSH1 0x20 ADD PUSH2 0x95 JUMP JUMPDEST CALLVALUE DUP1 ISZERO PUSH2 0xEF JUMPI PUSH1 0x0 DUP1 REVERT JUMPDEST POP PUSH2 0x8B PUSH1 0x1 SLOAD DUP2 JUMP JUMPDEST PUSH2 0x10C PUSH2 0x107 CALLDATASIZE PUSH1 0x4 PUSH2 0xF17 JUMP JUMPDEST PUSH2 0x1C5 JUMP JUMPDEST PUSH1 0x40 MLOAD PUSH2 0x95 SWAP2 SWAP1 PUSH2 0x1009 JUMP JUMPDEST CALLVALUE DUP1 ISZERO PUSH2 0x125 JUMPI PUSH1 0x0 DUP1 REVERT JUMPDEST POP PUSH2 0x139 PUSH2 0x134 CALLDATASIZE PUSH1 0x4 PUSH2 0xE95 JUMP JUMPDEST PUSH2 0x410 JUMP JUMPDEST PUSH1 0x40 MLOAD PUSH2 0x95 SWAP7 SWAP6 SWAP5 SWAP4 SWAP3 SWAP2 SWAP1 PUSH2 0x101C JUMP JUMPDEST CALLVALUE DUP1 ISZERO PUSH2 0x157 JUMPI PUSH1 0x0 DUP1 REVERT JUMPDEST POP PUSH2 0x16B PUSH2 0x166 CALLDATASIZE PUSH1 0x4 PUSH2 0xE72 JUMP JUMPDEST PUSH2 0x56D JUMP JUMPDEST PUSH1 0x40 MLOAD PUSH2 0x95 SWAP5 SWAP4 SWAP3 SWAP2 SWAP1 PUSH2 0x107C JUMP JUMPDEST PUSH2 0x10C PUSH2 0x189 CALLDATASIZE PUSH1 0x4 PUSH2 0xEAD JUMP JUMPDEST PUSH2 0x635 JUMP JUMPDEST PUSH1 0x3 DUP2 DUP2 SLOAD DUP2 LT PUSH2 0x19E JUMPI PUSH1 0x0 DUP1 REVERT JUMPDEST PUSH1 0x0 SWAP2 DUP3 MSTORE PUSH1 0x20 SWAP1 SWAP2 KECCAK256 ADD SLOAD PUSH20 0xFFFFFFFFFFFFFFFFFFFFFFFFFFFFFFFFFFFFFFFF AND SWAP1 POP DUP2 JUMP JUMPDEST PUSH1 0x60 DUP2 DUP1 EXTCODESIZE ISZERO PUSH2 0x25C JUMPI PUSH1 0x40 MLOAD PUSH32 0x8C379A000000000000000000000000000000000000000000000000000000000 DUP2 MSTORE PUSH1 0x20 PUSH1 0x4 DUP3 ADD MSTORE PUSH1 0x29 PUSH1 0x24 DUP3 ADD MSTORE PUSH32 0x547275737465642070617274792077616C6C6574206164647265737320697320 PUSH1 0x44 DUP3 ADD MSTORE PUSH32 0x6E6F742076616C69640000000000000000000000000000000000000000000000 PUSH1 0x64 DUP3 ADD MSTORE PUSH1 0x84 ADD JUMPDEST PUSH1 0x40 MLOAD DUP1 SWAP2 SUB SWAP1 REVERT JUMPDEST PUSH2 0x265 CALLER PUSH2 0xB5F JUMP JUMPDEST PUSH2 0x2F0 JUMPI PUSH1 0x40 MLOAD PUSH32 0x8C379A000000000000000000000000000000000000000000000000000000000 DUP2 MSTORE PUSH1 0x20 PUSH1 0x4 DUP3 ADD MSTORE PUSH1 0x24 DUP1 DUP3 ADD MSTORE PUSH32 0x596F7520646F6E277420686176652061636365737320746F206164642070726F PUSH1 0x44 DUP3 ADD MSTORE PUSH32 0x6475637400000000000000000000000000000000000000000000000000000000 PUSH1 0x64 DUP3 ADD MSTORE PUSH1 0x84 ADD PUSH2 0x253 JUMP JUMPDEST PUSH1 0x1 DUP1 PUSH1 0x0 DUP3 DUP3 SLOAD PUSH2 0x302 SWAP2 SWAP1 PUSH2 0x10C2 JUMP JUMPDEST SWAP1 SWAP2 SSTORE POP POP PUSH1 0x0 DUP8 DUP2 MSTORE PUSH1 0x5 PUSH1 0x20 SWAP1 DUP2 MSTORE PUSH1 0x40 SWAP1 SWAP2 KECCAK256 DUP7 MLOAD PUSH2 0x32C SWAP3 PUSH1 0x2 SWAP1 SWAP3 ADD SWAP2 DUP9 ADD SWAP1 PUSH2 0xD34 JUMP JUMPDEST POP PUSH1 0x0 DUP8 DUP2 MSTORE PUSH1 0x5 PUSH1 0x20 SWAP1 DUP2 MSTORE PUSH1 0x40 SWAP1 SWAP2 KECCAK256 DUP9 DUP2 SSTORE PUSH1 0x3 DUP2 ADD DUP7 SWAP1 SSTORE DUP8 MLOAD PUSH2 0x35C SWAP3 PUSH1 0x1 SWAP1 SWAP3 ADD SWAP2 DUP10 ADD SWAP1 PUSH2 0xD34 JUMP JUMPDEST POP PUSH1 0x1 DUP1 SLOAD PUSH1 0x0 DUP10 DUP2 MSTORE PUSH1 0x5 PUSH1 0x20 DUP2 SWAP1 MSTORE PUSH1 0x40 SWAP2 DUP3 SWAP1 KECCAK256 PUSH1 0x4 DUP2 ADD SWAP4 SWAP1 SWAP4 SSTORE SWAP2 SWAP1 SWAP2 ADD DUP1 SLOAD PUSH32 0xFFFFFFFFFFFFFFFFFFFFFFFF0000000000000000000000000000000000000000 AND CALLER SWAP1 DUP2 OR SWAP1 SWAP2 SSTORE SWAP2 SLOAD SWAP1 MLOAD PUSH32 0xBBED7F49F072220E395DE941DFBF585236440F79095C90C1F6FB536C4AB5C043 SWAP3 PUSH2 0x3E4 SWAP3 DUP12 SWAP3 DUP12 SWAP3 DUP12 SWAP3 DUP12 SWAP3 SWAP1 SWAP2 SWAP1 PUSH2 0x101C JUMP JUMPDEST PUSH1 0x40 MLOAD DUP1 SWAP2 SUB SWAP1 LOG1 PUSH1 0x40 MLOAD DUP1 PUSH1 0x80 ADD PUSH1 0x40 MSTORE DUP1 PUSH1 0x43 DUP2 MSTORE PUSH1 0x20 ADD PUSH2 0x11A8 PUSH1 0x43 SWAP2 CODECOPY SWAP8 SWAP7 POP POP POP POP POP POP POP JUMP JUMPDEST PUSH1 0x5 PUSH1 0x20 MSTORE PUSH1 0x0 SWAP1 DUP2 MSTORE PUSH1 0x40 SWAP1 KECCAK256 DUP1 SLOAD PUSH1 0x1 DUP3 ADD DUP1 SLOAD SWAP2 SWAP3 SWAP2 PUSH2 0x432 SWAP1 PUSH2 0x10FF JUMP JUMPDEST DUP1 PUSH1 0x1F ADD PUSH1 0x20 DUP1 SWAP2 DIV MUL PUSH1 0x20 ADD PUSH1 0x40 MLOAD SWAP1 DUP2 ADD PUSH1 0x40 MSTORE DUP1 SWAP3 SWAP2 SWAP1 DUP2 DUP2 MSTORE PUSH1 0x20 ADD DUP3 DUP1 SLOAD PUSH2 0x45E SWAP1 PUSH2 0x10FF JUMP JUMPDEST DUP1 ISZERO PUSH2 0x4AB JUMPI DUP1 PUSH1 0x1F LT PUSH2 0x480 JUMPI PUSH2 0x100 DUP1 DUP4 SLOAD DIV MUL DUP4 MSTORE SWAP2 PUSH1 0x20 ADD SWAP2 PUSH2 0x4AB JUMP JUMPDEST DUP3 ADD SWAP2 SWAP1 PUSH1 0x0 MSTORE PUSH1 0x20 PUSH1 0x0 KECCAK256 SWAP1 JUMPDEST DUP2 SLOAD DUP2 MSTORE SWAP1 PUSH1 0x1 ADD SWAP1 PUSH1 0x20 ADD DUP1 DUP4 GT PUSH2 0x48E JUMPI DUP3 SWAP1 SUB PUSH1 0x1F AND DUP3 ADD SWAP2 JUMPDEST POP POP POP POP POP SWAP1 DUP1 PUSH1 0x2 ADD DUP1 SLOAD PUSH2 0x4C0 SWAP1 PUSH2 0x10FF JUMP JUMPDEST DUP1 PUSH1 0x1F ADD PUSH1 0x20 DUP1 SWAP2 DIV MUL PUSH1 0x20 ADD PUSH1 0x40 MLOAD SWAP1 DUP2 ADD PUSH1 0x40 MSTORE DUP1 SWAP3 SWAP2 SWAP1 DUP2 DUP2 MSTORE PUSH1 0x20 ADD DUP3 DUP1 SLOAD PUSH2 0x4EC SWAP1 PUSH2 0x10FF JUMP JUMPDEST DUP1 ISZERO PUSH2 0x539 JUMPI DUP1 PUSH1 0x1F LT PUSH2 0x50E JUMPI PUSH2 0x100 DUP1 DUP4 SLOAD DIV MUL DUP4 MSTORE SWAP2 PUSH1 0x20 ADD SWAP2 PUSH2 0x539 JUMP JUMPDEST DUP3 ADD SWAP2 SWAP1 PUSH1 0x0 MSTORE PUSH1 0x20 PUSH1 0x0 KECCAK256 SWAP1 JUMPDEST DUP2 SLOAD DUP2 MSTORE SWAP1 PUSH1 0x1 ADD SWAP1 PUSH1 0x20 ADD DUP1 DUP4 GT PUSH2 0x51C JUMPI DUP3 SWAP1 SUB PUSH1 0x1F AND DUP3 ADD SWAP2 JUMPDEST POP POP POP POP PUSH1 0x3 DUP4 ADD SLOAD PUSH1 0x4 DUP5 ADD SLOAD PUSH1 0x5 SWAP1 SWAP5 ADD SLOAD SWAP3 SWAP4 SWAP1 SWAP3 SWAP1 SWAP2 POP PUSH20 0xFFFFFFFFFFFFFFFFFFFFFFFFFFFFFFFFFFFFFFFF AND DUP7 JUMP JUMPDEST PUSH1 0x4 PUSH1 0x20 MSTORE PUSH1 0x0 SWAP1 DUP2 MSTORE PUSH1 0x40 SWAP1 KECCAK256 DUP1 SLOAD PUSH1 0x1 DUP3 ADD DUP1 SLOAD SWAP2 SWAP3 SWAP2 PUSH2 0x58F SWAP1 PUSH2 0x10FF JUMP JUMPDEST DUP1 PUSH1 0x1F ADD PUSH1 0x20 DUP1 SWAP2 DIV MUL PUSH1 0x20 ADD PUSH1 0x40 MLOAD SWAP1 DUP2 ADD PUSH1 0x40 MSTORE DUP1 SWAP3 SWAP2 SWAP1 DUP2 DUP2 MSTORE PUSH1 0x20 ADD DUP3 DUP1 SLOAD PUSH2 0x5BB SWAP1 PUSH2 0x10FF JUMP JUMPDEST DUP1 ISZERO PUSH2 0x608 JUMPI DUP1 PUSH1 0x1F LT PUSH2 0x5DD JUMPI PUSH2 0x100 DUP1 DUP4 SLOAD DIV MUL DUP4 MSTORE SWAP2 PUSH1 0x20 ADD SWAP2 PUSH2 0x608 JUMP JUMPDEST DUP3 ADD SWAP2 SWAP1 PUSH1 0x0 MSTORE PUSH1 0x20 PUSH1 0x0 KECCAK256 SWAP1 JUMPDEST DUP2 SLOAD DUP2 MSTORE SWAP1 PUSH1 0x1 ADD SWAP1 PUSH1 0x20 ADD DUP1 DUP4 GT PUSH2 0x5EB JUMPI DUP3 SWAP1 SUB PUSH1 0x1F AND DUP3 ADD SWAP2 JUMPDEST POP POP POP POP PUSH1 0x2 DUP4 ADD SLOAD PUSH1 0x3 SWAP1 SWAP4 ADD SLOAD SWAP2 SWAP3 SWAP2 PUSH20 0xFFFFFFFFFFFFFFFFFFFFFFFFFFFFFFFFFFFFFFFF AND SWAP1 POP DUP5 JUMP JUMPDEST PUSH1 0x2 SLOAD PUSH1 0x60 SWAP1 PUSH20 0xFFFFFFFFFFFFFFFFFFFFFFFFFFFFFFFFFFFFFFFF AND CALLER EQ PUSH2 0x6DF JUMPI PUSH1 0x40 MLOAD PUSH32 0x8C379A000000000000000000000000000000000000000000000000000000000 DUP2 MSTORE PUSH1 0x20 PUSH1 0x4 DUP3 ADD MSTORE PUSH1 0x35 PUSH1 0x24 DUP3 ADD MSTORE PUSH32 0x596F7520617265206E6F7420746865207472756573742070617274792E204265 PUSH1 0x44 DUP3 ADD MSTORE PUSH32 0x7474657220747279206E6578742074696D65203A440000000000000000000000 PUSH1 0x64 DUP3 ADD MSTORE PUSH1 0x84 ADD PUSH2 0x253 JUMP JUMPDEST DUP3 DUP1 EXTCODESIZE ISZERO PUSH2 0x76F JUMPI PUSH1 0x40 MLOAD PUSH32 0x8C379A000000000000000000000000000000000000000000000000000000000 DUP2 MSTORE PUSH1 0x20 PUSH1 0x4 DUP3 ADD MSTORE PUSH1 0x29 PUSH1 0x24 DUP3 ADD MSTORE PUSH32 0x547275737465642070617274792077616C6C6574206164647265737320697320 PUSH1 0x44 DUP3 ADD MSTORE PUSH32 0x6E6F742076616C69640000000000000000000000000000000000000000000000 PUSH1 0x64 DUP3 ADD MSTORE PUSH1 0x84 ADD PUSH2 0x253 JUMP JUMPDEST DUP3 DUP1 EXTCODESIZE ISZERO PUSH2 0x7FF JUMPI PUSH1 0x40 MLOAD PUSH32 0x8C379A000000000000000000000000000000000000000000000000000000000 DUP2 MSTORE PUSH1 0x20 PUSH1 0x4 DUP3 ADD MSTORE PUSH1 0x29 PUSH1 0x24 DUP3 ADD MSTORE PUSH32 0x547275737465642070617274792077616C6C6574206164647265737320697320 PUSH1 0x44 DUP3 ADD MSTORE PUSH32 0x6E6F742076616C69640000000000000000000000000000000000000000000000 PUSH1 0x64 DUP3 ADD MSTORE PUSH1 0x84 ADD PUSH2 0x253 JUMP JUMPDEST DUP4 PUSH20 0xFFFFFFFFFFFFFFFFFFFFFFFFFFFFFFFFFFFFFFFF AND DUP6 PUSH20 0xFFFFFFFFFFFFFFFFFFFFFFFFFFFFFFFFFFFFFFFF AND EQ ISZERO PUSH2 0x8BD JUMPI PUSH1 0x40 DUP1 MLOAD PUSH32 0x8C379A000000000000000000000000000000000000000000000000000000000 DUP2 MSTORE PUSH1 0x20 PUSH1 0x4 DUP3 ADD MSTORE PUSH1 0x24 DUP2 ADD SWAP2 SWAP1 SWAP2 MSTORE PUSH32 0x54727573746564207061727479206164647265737320616E6420696E64757374 PUSH1 0x44 DUP3 ADD MSTORE PUSH32 0x72792077616C6C657420616464726573732063616E6E6F742062652073616D65 PUSH1 0x64 DUP3 ADD MSTORE PUSH1 0x84 ADD PUSH2 0x253 JUMP JUMPDEST PUSH2 0x8C6 DUP6 PUSH2 0xC5C JUMP JUMPDEST PUSH2 0x952 JUMPI PUSH1 0x40 MLOAD PUSH32 0x8C379A000000000000000000000000000000000000000000000000000000000 DUP2 MSTORE PUSH1 0x20 PUSH1 0x4 DUP3 ADD MSTORE PUSH1 0x27 PUSH1 0x24 DUP3 ADD MSTORE PUSH32 0x596F7520617265206E6F7420616C6C6F77656420746F2061646420616E792069 PUSH1 0x44 DUP3 ADD MSTORE PUSH32 0x6E64757374727900000000000000000000000000000000000000000000000000 PUSH1 0x64 DUP3 ADD MSTORE PUSH1 0x84 ADD PUSH2 0x253 JUMP JUMPDEST PUSH20 0xFFFFFFFFFFFFFFFFFFFFFFFFFFFFFFFFFFFFFFFF DUP1 DUP6 AND PUSH1 0x0 DUP2 DUP2 MSTORE PUSH1 0x4 PUSH1 0x20 MSTORE PUSH1 0x40 SWAP1 KECCAK256 PUSH1 0x3 ADD SLOAD SWAP1 SWAP2 AND EQ ISZERO PUSH2 0xA0D JUMPI PUSH1 0x40 MLOAD PUSH32 0x8C379A000000000000000000000000000000000000000000000000000000000 DUP2 MSTORE PUSH1 0x20 PUSH1 0x4 DUP3 ADD MSTORE PUSH1 0x2B PUSH1 0x24 DUP3 ADD MSTORE PUSH32 0x5468697320696E64757374727920697320616C72656164792065786973747320 PUSH1 0x44 DUP3 ADD MSTORE PUSH32 0x696E20746865206C697374000000000000000000000000000000000000000000 PUSH1 0x64 DUP3 ADD MSTORE PUSH1 0x84 ADD PUSH2 0x253 JUMP JUMPDEST PUSH1 0x1 PUSH1 0x0 DUP1 DUP3 DUP3 SLOAD PUSH2 0xA1F SWAP2 SWAP1 PUSH2 0x10C2 JUMP JUMPDEST SWAP1 SWAP2 SSTORE POP POP PUSH20 0xFFFFFFFFFFFFFFFFFFFFFFFFFFFFFFFFFFFFFFFF DUP5 AND PUSH1 0x0 SWAP1 DUP2 MSTORE PUSH1 0x4 PUSH1 0x20 SWAP1 DUP2 MSTORE PUSH1 0x40 SWAP1 SWAP2 KECCAK256 DUP9 DUP2 SSTORE DUP8 MLOAD PUSH2 0xA63 SWAP3 PUSH1 0x1 SWAP1 SWAP3 ADD SWAP2 DUP10 ADD SWAP1 PUSH2 0xD34 JUMP JUMPDEST POP PUSH1 0x0 DUP1 SLOAD PUSH20 0xFFFFFFFFFFFFFFFFFFFFFFFFFFFFFFFFFFFFFFFF DUP7 AND DUP1 DUP4 MSTORE PUSH1 0x4 PUSH1 0x20 MSTORE PUSH1 0x40 DUP1 DUP5 KECCAK256 PUSH1 0x2 DUP2 ADD SWAP4 SWAP1 SWAP4 SSTORE PUSH1 0x3 SWAP3 DUP4 ADD DUP1 SLOAD PUSH32 0xFFFFFFFFFFFFFFFFFFFFFFFF0000000000000000000000000000000000000000 SWAP1 DUP2 AND DUP5 OR SWAP1 SWAP2 SSTORE DUP4 SLOAD PUSH1 0x1 DUP2 ADD DUP6 SSTORE SWAP4 DUP6 MSTORE PUSH32 0xC2575A0E9E593C00F959F8C92F12DB2869C3395A3B0502D05E2516446F71F85B SWAP1 SWAP4 ADD DUP1 SLOAD SWAP1 SWAP4 AND SWAP1 SWAP2 OR SWAP1 SWAP2 SSTORE SWAP1 SLOAD SWAP1 MLOAD PUSH32 0xCA95F90B7F721F1E8412147ADC497446B0DAD584DF2481CD3E910D66099CB12B SWAP2 PUSH2 0xB33 SWAP2 DUP11 SWAP2 DUP11 SWAP2 DUP10 SWAP1 PUSH2 0x107C JUMP JUMPDEST PUSH1 0x40 MLOAD DUP1 SWAP2 SUB SWAP1 LOG1 PUSH1 0x40 MLOAD DUP1 PUSH1 0x60 ADD PUSH1 0x40 MSTORE DUP1 PUSH1 0x34 DUP2 MSTORE PUSH1 0x20 ADD PUSH2 0x11EB PUSH1 0x34 SWAP2 CODECOPY SWAP8 SWAP7 POP POP POP POP POP POP POP JUMP JUMPDEST PUSH20 0xFFFFFFFFFFFFFFFFFFFFFFFFFFFFFFFFFFFFFFFF DUP1 DUP3 AND PUSH1 0x0 DUP2 DUP2 MSTORE PUSH1 0x4 PUSH1 0x20 MSTORE PUSH1 0x40 DUP2 KECCAK256 PUSH1 0x3 ADD SLOAD SWAP1 SWAP3 AND EQ PUSH2 0xC19 JUMPI PUSH1 0x40 MLOAD PUSH32 0x8C379A000000000000000000000000000000000000000000000000000000000 DUP2 MSTORE PUSH1 0x20 PUSH1 0x4 DUP3 ADD MSTORE PUSH1 0x2E PUSH1 0x24 DUP3 ADD MSTORE PUSH32 0x596F7520617265206E6F74207065726D697474656420746F2063616C6C207468 PUSH1 0x44 DUP3 ADD MSTORE PUSH32 0x69732066756E6374696F6E203A44000000000000000000000000000000000000 PUSH1 0x64 DUP3 ADD MSTORE PUSH1 0x84 ADD PUSH2 0x253 JUMP JUMPDEST PUSH20 0xFFFFFFFFFFFFFFFFFFFFFFFFFFFFFFFFFFFFFFFF DUP1 DUP4 AND PUSH1 0x0 DUP2 DUP2 MSTORE PUSH1 0x4 PUSH1 0x20 MSTORE PUSH1 0x40 SWAP1 KECCAK256 PUSH1 0x3 ADD SLOAD SWAP1 SWAP2 AND EQ ISZERO PUSH2 0xC54 JUMPI POP PUSH1 0x1 SWAP2 SWAP1 POP JUMP JUMPDEST POP PUSH1 0x0 SWAP2 SWAP1 POP JUMP JUMPDEST PUSH1 0x2 SLOAD PUSH1 0x0 SWAP1 PUSH20 0xFFFFFFFFFFFFFFFFFFFFFFFFFFFFFFFFFFFFFFFF DUP4 DUP2 AND SWAP2 AND EQ PUSH2 0xD09 JUMPI PUSH1 0x40 MLOAD PUSH32 0x8C379A000000000000000000000000000000000000000000000000000000000 DUP2 MSTORE PUSH1 0x20 PUSH1 0x4 DUP3 ADD MSTORE PUSH1 0x2E PUSH1 0x24 DUP3 ADD MSTORE PUSH32 0x596F7520617265206E6F74207065726D697474656420746F2063616C6C207468 PUSH1 0x44 DUP3 ADD MSTORE PUSH32 0x69732066756E6374696F6E203A44000000000000000000000000000000000000 PUSH1 0x64 DUP3 ADD MSTORE PUSH1 0x84 ADD PUSH2 0x253 JUMP JUMPDEST PUSH1 0x2 SLOAD PUSH20 0xFFFFFFFFFFFFFFFFFFFFFFFFFFFFFFFFFFFFFFFF DUP4 DUP2 AND SWAP2 AND EQ ISZERO PUSH2 0xC54 JUMPI POP PUSH1 0x1 SWAP2 SWAP1 POP JUMP JUMPDEST DUP3 DUP1 SLOAD PUSH2 0xD40 SWAP1 PUSH2 0x10FF JUMP JUMPDEST SWAP1 PUSH1 0x0 MSTORE PUSH1 0x20 PUSH1 0x0 KECCAK256 SWAP1 PUSH1 0x1F ADD PUSH1 0x20 SWAP1 DIV DUP2 ADD SWAP3 DUP3 PUSH2 0xD62 JUMPI PUSH1 0x0 DUP6 SSTORE PUSH2 0xDA8 JUMP JUMPDEST DUP3 PUSH1 0x1F LT PUSH2 0xD7B JUMPI DUP1 MLOAD PUSH1 0xFF NOT AND DUP4 DUP1 ADD OR DUP6 SSTORE PUSH2 0xDA8 JUMP JUMPDEST DUP3 DUP1 ADD PUSH1 0x1 ADD DUP6 SSTORE DUP3 ISZERO PUSH2 0xDA8 JUMPI SWAP2 DUP3 ADD JUMPDEST DUP3 DUP2 GT ISZERO PUSH2 0xDA8 JUMPI DUP3 MLOAD DUP3 SSTORE SWAP2 PUSH1 0x20 ADD SWAP2 SWAP1 PUSH1 0x1 ADD SWAP1 PUSH2 0xD8D JUMP JUMPDEST POP PUSH2 0xDB4 SWAP3 SWAP2 POP PUSH2 0xDB8 JUMP JUMPDEST POP SWAP1 JUMP JUMPDEST JUMPDEST DUP1 DUP3 GT ISZERO PUSH2 0xDB4 JUMPI PUSH1 0x0 DUP2 SSTORE PUSH1 0x1 ADD PUSH2 0xDB9 JUMP JUMPDEST PUSH1 0x0 DUP3 PUSH1 0x1F DUP4 ADD SLT PUSH2 0xDDD JUMPI DUP1 DUP2 REVERT JUMPDEST DUP2 CALLDATALOAD PUSH8 0xFFFFFFFFFFFFFFFF DUP1 DUP3 GT ISZERO PUSH2 0xDF8 JUMPI PUSH2 0xDF8 PUSH2 0x1153 JUMP JUMPDEST PUSH1 0x40 MLOAD PUSH1 0x1F DUP4 ADD PUSH32 0xFFFFFFFFFFFFFFFFFFFFFFFFFFFFFFFFFFFFFFFFFFFFFFFFFFFFFFFFFFFFFFE0 SWAP1 DUP2 AND PUSH1 0x3F ADD AND DUP2 ADD SWAP1 DUP3 DUP3 GT DUP2 DUP4 LT OR ISZERO PUSH2 0xE3E JUMPI PUSH2 0xE3E PUSH2 0x1153 JUMP JUMPDEST DUP2 PUSH1 0x40 MSTORE DUP4 DUP2 MSTORE DUP7 PUSH1 0x20 DUP6 DUP9 ADD ADD GT ISZERO PUSH2 0xE56 JUMPI DUP5 DUP6 REVERT JUMPDEST DUP4 PUSH1 0x20 DUP8 ADD PUSH1 0x20 DUP4 ADD CALLDATACOPY SWAP3 DUP4 ADD PUSH1 0x20 ADD SWAP4 SWAP1 SWAP4 MSTORE POP SWAP4 SWAP3 POP POP POP JUMP JUMPDEST PUSH1 0x0 PUSH1 0x20 DUP3 DUP5 SUB SLT ISZERO PUSH2 0xE83 JUMPI DUP1 DUP2 REVERT JUMPDEST DUP2 CALLDATALOAD PUSH2 0xE8E DUP2 PUSH2 0x1182 JUMP JUMPDEST SWAP4 SWAP3 POP POP POP JUMP JUMPDEST PUSH1 0x0 PUSH1 0x20 DUP3 DUP5 SUB SLT ISZERO PUSH2 0xEA6 JUMPI DUP1 DUP2 REVERT JUMPDEST POP CALLDATALOAD SWAP2 SWAP1 POP JUMP JUMPDEST PUSH1 0x0 DUP1 PUSH1 0x0 DUP1 PUSH1 0x80 DUP6 DUP8 SUB SLT ISZERO PUSH2 0xEC2 JUMPI DUP3 DUP4 REVERT JUMPDEST DUP5 CALLDATALOAD SWAP4 POP PUSH1 0x20 DUP6 ADD CALLDATALOAD PUSH8 0xFFFFFFFFFFFFFFFF DUP2 GT ISZERO PUSH2 0xEDF JUMPI DUP4 DUP5 REVERT JUMPDEST PUSH2 0xEEB DUP8 DUP3 DUP9 ADD PUSH2 0xDCD JUMP JUMPDEST SWAP4 POP POP PUSH1 0x40 DUP6 ADD CALLDATALOAD PUSH2 0xEFC DUP2 PUSH2 0x1182 JUMP JUMPDEST SWAP2 POP PUSH1 0x60 DUP6 ADD CALLDATALOAD PUSH2 0xF0C DUP2 PUSH2 0x1182 JUMP JUMPDEST SWAP4 SWAP7 SWAP3 SWAP6 POP SWAP1 SWAP4 POP POP JUMP JUMPDEST PUSH1 0x0 DUP1 PUSH1 0x0 DUP1 PUSH1 0x0 PUSH1 0xA0 DUP7 DUP9 SUB SLT ISZERO PUSH2 0xF2E JUMPI DUP1 DUP2 REVERT JUMPDEST DUP6 CALLDATALOAD SWAP5 POP PUSH1 0x20 DUP7 ADD CALLDATALOAD PUSH8 0xFFFFFFFFFFFFFFFF DUP1 DUP3 GT ISZERO PUSH2 0xF4C JUMPI DUP3 DUP4 REVERT JUMPDEST PUSH2 0xF58 DUP10 DUP4 DUP11 ADD PUSH2 0xDCD JUMP JUMPDEST SWAP6 POP PUSH1 0x40 DUP9 ADD CALLDATALOAD SWAP2 POP DUP1 DUP3 GT ISZERO PUSH2 0xF6D JUMPI DUP3 DUP4 REVERT JUMPDEST POP PUSH2 0xF7A DUP9 DUP3 DUP10 ADD PUSH2 0xDCD JUMP JUMPDEST SWAP4 POP POP PUSH1 0x60 DUP7 ADD CALLDATALOAD SWAP2 POP PUSH1 0x80 DUP7 ADD CALLDATALOAD PUSH2 0xF92 DUP2 PUSH2 0x1182 JUMP JUMPDEST DUP1 SWAP2 POP POP SWAP3 SWAP6 POP SWAP3 SWAP6 SWAP1 SWAP4 POP JUMP JUMPDEST PUSH1 0x0 DUP2 MLOAD DUP1 DUP5 MSTORE DUP2 JUMPDEST DUP2 DUP2 LT ISZERO PUSH2 0xFC5 JUMPI PUSH1 0x20 DUP2 DUP6 ADD DUP2 ADD MLOAD DUP7 DUP4 ADD DUP3 ADD MSTORE ADD PUSH2 0xFA9 JUMP JUMPDEST DUP2 DUP2 GT ISZERO PUSH2 0xFD6 JUMPI DUP3 PUSH1 0x20 DUP4 DUP8 ADD ADD MSTORE JUMPDEST POP PUSH1 0x1F ADD PUSH32 0xFFFFFFFFFFFFFFFFFFFFFFFFFFFFFFFFFFFFFFFFFFFFFFFFFFFFFFFFFFFFFFE0 AND SWAP3 SWAP1 SWAP3 ADD PUSH1 0x20 ADD SWAP3 SWAP2 POP POP JUMP JUMPDEST PUSH1 0x20 DUP2 MSTORE PUSH1 0x0 PUSH2 0xE8E PUSH1 0x20 DUP4 ADD DUP5 PUSH2 0xFA0 JUMP JUMPDEST DUP7 DUP2 MSTORE PUSH1 0xC0 PUSH1 0x20 DUP3 ADD MSTORE PUSH1 0x0 PUSH2 0x1035 PUSH1 0xC0 DUP4 ADD DUP9 PUSH2 0xFA0 JUMP JUMPDEST DUP3 DUP2 SUB PUSH1 0x40 DUP5 ADD MSTORE PUSH2 0x1047 DUP2 DUP9 PUSH2 0xFA0 JUMP JUMPDEST PUSH1 0x60 DUP5 ADD SWAP7 SWAP1 SWAP7 MSTORE POP POP PUSH1 0x80 DUP2 ADD SWAP3 SWAP1 SWAP3 MSTORE PUSH20 0xFFFFFFFFFFFFFFFFFFFFFFFFFFFFFFFFFFFFFFFF AND PUSH1 0xA0 SWAP1 SWAP2 ADD MSTORE SWAP4 SWAP3 POP POP POP JUMP JUMPDEST DUP5 DUP2 MSTORE PUSH1 0x80 PUSH1 0x20 DUP3 ADD MSTORE PUSH1 0x0 PUSH2 0x1095 PUSH1 0x80 DUP4 ADD DUP7 PUSH2 0xFA0 JUMP JUMPDEST SWAP1 POP DUP4 PUSH1 0x40 DUP4 ADD MSTORE PUSH20 0xFFFFFFFFFFFFFFFFFFFFFFFFFFFFFFFFFFFFFFFF DUP4 AND PUSH1 0x60 DUP4 ADD MSTORE SWAP6 SWAP5 POP POP POP POP POP JUMP JUMPDEST PUSH1 0x0 DUP3 NOT DUP3 GT ISZERO PUSH2 0x10FA JUMPI PUSH32 0x4E487B7100000000000000000000000000000000000000000000000000000000 DUP2 MSTORE PUSH1 0x11 PUSH1 0x4 MSTORE PUSH1 0x24 DUP2 REVERT JUMPDEST POP ADD SWAP1 JUMP JUMPDEST PUSH1 0x1 DUP2 DUP2 SHR SWAP1 DUP3 AND DUP1 PUSH2 0x1113 JUMPI PUSH1 0x7F DUP3 AND SWAP2 POP JUMPDEST PUSH1 0x20 DUP3 LT DUP2 EQ ISZERO PUSH2 0x114D JUMPI PUSH32 0x4E487B7100000000000000000000000000000000000000000000000000000000 PUSH1 0x0 MSTORE PUSH1 0x22 PUSH1 0x4 MSTORE PUSH1 0x24 PUSH1 0x0 REVERT JUMPDEST POP SWAP2 SWAP1 POP JUMP JUMPDEST PUSH32 0x4E487B7100000000000000000000000000000000000000000000000000000000 PUSH1 0x0 MSTORE PUSH1 0x41 PUSH1 0x4 MSTORE PUSH1 0x24 PUSH1 0x0 REVERT JUMPDEST PUSH20 0xFFFFFFFFFFFFFFFFFFFFFFFFFFFFFFFFFFFFFFFF DUP2 AND DUP2 EQ PUSH2 0x11A4 JUMPI PUSH1 0x0 DUP1 REVERT JUMPDEST POP JUMP INVALID MSTORE8 PUSH22 0x636365737366756C6C79206164646564207468652070 PUSH19 0x6F6475637420696E666F726D6174696F6E2069 PUSH15 0x20426C6F636B636861696E2E204368 PUSH6 0x657273202121 0x49 PUSH15 0x647573747279207375636365737366 PUSH22 0x6C6C7920616464656420696E20426C6F636B63686169 PUSH15 0x2E20436865657273202121A2646970 PUSH7 0x73582212206E55 SHR PUSH6 0xAE44523D3421 ORIGIN DUP3 0xE8 PUSH15 0x90347DE07A684ED8EA24D4F02F3EAF 0x4E 0xA5 0xE9 PUSH5 0x736F6C6343 STOP ADDMOD DIV STOP CALLER "},"gasEstimates":{"creation":{"codeDepositCost":"938400","executionCost":"infinite","totalCost":"infinite"},"external":{"createindustry(uint256,string,address,address)":"infinite","currentIndustryId()":"985","currentProductId()":"1029","industry(address)":"infinite","industryAddress(uint256)":"2013","productInfo(uint256)":"infinite","storeProductInfo(uint256,string,string,uint256,address)":"infinite"},"internal":{"_getIndustries(address)":"infinite","_getTrustedParty(address)":"infinite","_isWalletAddress(address)":"infinite"}},"methodIdentifiers":{"createindustry(uint256,string,address,address)":"f8b37922","currentIndustryId()":"524196ec","currentProductId()":"a0e5964b","industry(address)":"cf4532d0","industryAddress(uint256)":"59feefb7","productInfo(uint256)":"bb119f6e","storeProductInfo(uint256,string,string,uint256,address)":"b38a8e65"}},"storageLayout":{"storage":[{"astId":3,"contract":"contracts/ProductValidation.sol:ProductValidation","label":"currentIndustryId","offset":0,"slot":"0","type":"t_uint256"},{"astId":5,"contract":"contracts/ProductValidation.sol:ProductValidation","label":"currentProductId","offset":0,"slot":"1","type":"t_uint256"},{"astId":7,"contract":"contracts/ProductValidation.sol:ProductValidation","label":"trustedParty","offset":0,"slot":"2","type":"t_address_payable"},{"astId":10,"contract":"contracts/ProductValidation.sol:ProductValidation","label":"industryAddress","offset":0,"slot":"3","type":"t_array(t_address)dyn_storage"},{"astId":37,"contract":"contracts/ProductValidation.sol:ProductValidation","label":"industry","offset":0,"slot":"4","type":"t_mapping(t_address,t_struct(Industry)32_storage)"},{"astId":42,"contract":"contracts/ProductValidation.sol:ProductValidation","label":"productInfo","offset":0,"slot":"5","type":"t_mapping(t_uint256,t_struct(Product)23_storage)"}],"types":{"t_address":{"encoding":"inplace","label":"address","numberOfBytes":"20"},"t_address_payable":{"encoding":"inplace","label":"address payable","numberOfBytes":"20"},"t_array(t_address)dyn_storage":{"base":"t_address","encoding":"dynamic_array","label":"address[]","numberOfBytes":"32"},"t_mapping(t_address,t_struct(Industry)32_storage)":{"encoding":"mapping","key":"t_address","label":"mapping(address => struct ProductValidation.Industry)","numberOfBytes":"32","value":"t_struct(Industry)32_storage"},"t_mapping(t_uint256,t_struct(Product)23_storage)":{"encoding":"mapping","key":"t_uint256","label":"mapping(uint256 => struct ProductValidation.Product)","numberOfBytes":"32","value":"t_struct(Product)23_storage"},"t_string_storage":{"encoding":"bytes","label":"string","numberOfBytes":"32"},"t_struct(Industry)32_storage":{"encoding":"inplace","label":"struct ProductValidation.Industry","members":[{"astId":25,"contract":"contracts/ProductValidation.sol:ProductValidation","label":"insdustryId","offset":0,"slot":"0","type":"t_uint256"},{"astId":27,"contract":"contracts/ProductValidation.sol:ProductValidation","label":"insdustryName","offset":0,"slot":"1","type":"t_string_storage"},{"astId":29,"contract":"contracts/ProductValidation.sol:ProductValidation","label":"insdustryID","offset":0,"slot":"2","type":"t_uint256"},{"astId":31,"contract":"contracts/ProductValidation.sol:ProductValidation","label":"industryWalletAddress","offset":0,"slot":"3","type":"t_address_payable"}],"numberOfBytes":"128"},"t_struct(Product)23_storage":{"encoding":"inplace","label":"struct ProductValidation.Product","members":[{"astId":12,"contract":"contracts/ProductValidation.sol:ProductValidation","label":"foodId","offset":0,"slot":"0","type":"t_uint256"},{"astId":14,"contract":"contracts/ProductValidation.sol:ProductValidation","label":"productExpiurationDate","offset":0,"slot":"1","type":"t_string_storage"},{"astId":16,"contract":"contracts/ProductValidation.sol:ProductValidation","label":"nameOfOwner","offset":0,"slot":"2","type":"t_string_storage"},{"astId":18,"contract":"contracts/ProductValidation.sol:ProductValidation","label":"productAmount","offset":0,"slot":"3","type":"t_uint256"},{"astId":20,"contract":"contracts/ProductValidation.sol:ProductValidation","label":"currentProductId","offset":0,"slot":"4","type":"t_uint256"},{"astId":22,"contract":"contracts/ProductValidation.sol:ProductValidation","label":"addedBy","offset":0,"slot":"5","type":"t_address"}],"numberOfBytes":"192"},"t_uint256":{"encoding":"inplace","label":"uint256","numberOfBytes":"32"}}},"userdoc":{"kind":"user","methods":{},"version":1}}}}