{
  "_format": "hh-sol-artifact-1",
  "contractName": "ProductValidation",
  "sourceName": "contracts/ProductValidation.sol",
  "abi": [
    {
      "inputs": [
        {
          "internalType": "address payable",
          "name": "_trustedParty",
          "type": "address"
        },
        {
          "internalType": "uint256",
          "name": "_currentIndustryId",
          "type": "uint256"
        },
        {
          "internalType": "uint256",
          "name": "_currentProductId",
          "type": "uint256"
        }
      ],
      "stateMutability": "nonpayable",
      "type": "constructor"
    },
    {
      "anonymous": false,
      "inputs": [
        {
          "indexed": false,
          "internalType": "uint256",
          "name": "insdustryId",
          "type": "uint256"
        },
        {
          "indexed": false,
          "internalType": "string",
          "name": "insdustryName",
          "type": "string"
        },
        {
          "indexed": false,
          "internalType": "uint256",
          "name": "insdustryID",
          "type": "uint256"
        },
        {
          "indexed": false,
          "internalType": "address payable",
          "name": "industryWalletAddress",
          "type": "address"
        }
      ],
      "name": "industryAdded",
      "type": "event"
    },
    {
      "anonymous": false,
      "inputs": [
        {
          "indexed": false,
          "internalType": "uint256",
          "name": "foodID",
          "type": "uint256"
        },
        {
          "indexed": false,
          "internalType": "string",
          "name": "productExpiurationDate",
          "type": "string"
        },
        {
          "indexed": false,
          "internalType": "string",
          "name": "nameOfOwner",
          "type": "string"
        },
        {
          "indexed": false,
          "internalType": "uint256",
          "name": "productAmount",
          "type": "uint256"
        },
        {
          "indexed": false,
          "internalType": "uint256",
          "name": "currentProductId",
          "type": "uint256"
        },
        {
          "indexed": false,
          "internalType": "address",
          "name": "addedBy",
          "type": "address"
        }
      ],
      "name": "productAdded",
      "type": "event"
    },
    {
      "inputs": [
        {
          "internalType": "uint256",
          "name": "_insdustryId",
          "type": "uint256"
        },
        {
          "internalType": "string",
          "name": "_insdustryName",
          "type": "string"
        },
        {
          "internalType": "address payable",
          "name": "_trustedParty",
          "type": "address"
        },
        {
          "internalType": "address payable",
          "name": "_industryWalletAddress",
          "type": "address"
        }
      ],
      "name": "createindustry",
      "outputs": [
        {
          "internalType": "string",
          "name": "",
          "type": "string"
        }
      ],
      "stateMutability": "payable",
      "type": "function"
    },
    {
      "inputs": [],
      "name": "currentIndustryId",
      "outputs": [
        {
          "internalType": "uint256",
          "name": "",
          "type": "uint256"
        }
      ],
      "stateMutability": "view",
      "type": "function"
    },
    {
      "inputs": [],
      "name": "currentProductId",
      "outputs": [
        {
          "internalType": "uint256",
          "name": "",
          "type": "uint256"
        }
      ],
      "stateMutability": "view",
      "type": "function"
    },
    {
      "inputs": [
        {
          "internalType": "address",
          "name": "",
          "type": "address"
        }
      ],
      "name": "industry",
      "outputs": [
        {
          "internalType": "uint256",
          "name": "insdustryId",
          "type": "uint256"
        },
        {
          "internalType": "string",
          "name": "insdustryName",
          "type": "string"
        },
        {
          "internalType": "uint256",
          "name": "insdustryID",
          "type": "uint256"
        },
        {
          "internalType": "address payable",
          "name": "industryWalletAddress",
          "type": "address"
        }
      ],
      "stateMutability": "view",
      "type": "function"
    },
    {
      "inputs": [
        {
          "internalType": "uint256",
          "name": "",
          "type": "uint256"
        }
      ],
      "name": "industryAddress",
      "outputs": [
        {
          "internalType": "address",
          "name": "",
          "type": "address"
        }
      ],
      "stateMutability": "view",
      "type": "function"
    },
    {
      "inputs": [
        {
          "internalType": "uint256",
          "name": "",
          "type": "uint256"
        }
      ],
      "name": "productInfo",
      "outputs": [
        {
          "internalType": "uint256",
          "name": "foodId",
          "type": "uint256"
        },
        {
          "internalType": "string",
          "name": "productExpiurationDate",
          "type": "string"
        },
        {
          "internalType": "string",
          "name": "nameOfOwner",
          "type": "string"
        },
        {
          "internalType": "uint256",
          "name": "productAmount",
          "type": "uint256"
        },
        {
          "internalType": "uint256",
          "name": "currentProductId",
          "type": "uint256"
        },
        {
          "internalType": "address",
          "name": "addedBy",
          "type": "address"
        }
      ],
      "stateMutability": "view",
      "type": "function"
    },
    {
      "inputs": [
        {
          "internalType": "uint256",
          "name": "_foodId",
          "type": "uint256"
        },
        {
          "internalType": "string",
          "name": "_productExpiurationDate",
          "type": "string"
        },
        {
          "internalType": "string",
          "name": "_nameOfOwner",
          "type": "string"
        },
        {
          "internalType": "uint256",
          "name": "_productAmount",
          "type": "uint256"
        },
        {
          "internalType": "address payable",
          "name": "_industryWalletAddress",
          "type": "address"
        }
      ],
      "name": "storeProductInfo",
      "outputs": [
        {
          "internalType": "string",
          "name": "",
          "type": "string"
        }
      ],
      "stateMutability": "payable",
      "type": "function"
    }
  ],
  "bytecode": "0x608060405234801561001057600080fd5b506040516112ff3803806112ff83398101604081905261002f9161005b565b600280546001600160a01b0319166001600160a01b03949094169390931790925560005560015561009c565b60008060006060848603121561006f578283fd5b83516001600160a01b0381168114610085578384fd5b602085015160409095015190969495509392505050565b611254806100ab6000396000f3fe6080604052600436106100705760003560e01c8063b38a8e651161004e578063b38a8e65146100f9578063bb119f6e14610119578063cf4532d01461014b578063f8b379221461017b57600080fd5b8063524196ec1461007557806359feefb71461009e578063a0e5964b146100e3575b600080fd5b34801561008157600080fd5b5061008b60005481565b6040519081526020015b60405180910390f35b3480156100aa57600080fd5b506100be6100b9366004610e95565b61018e565b60405173ffffffffffffffffffffffffffffffffffffffff9091168152602001610095565b3480156100ef57600080fd5b5061008b60015481565b61010c610107366004610f17565b6101c5565b6040516100959190611009565b34801561012557600080fd5b50610139610134366004610e95565b610410565b6040516100959695949392919061101c565b34801561015757600080fd5b5061016b610166366004610e72565b61056d565b604051610095949392919061107c565b61010c610189366004610ead565b610635565b6003818154811061019e57600080fd5b60009182526020909120015473ffffffffffffffffffffffffffffffffffffffff16905081565b606081803b1561025c576040517f08c379a000000000000000000000000000000000000000000000000000000000815260206004820152602960248201527f547275737465642070617274792077616c6c657420616464726573732069732060448201527f6e6f742076616c6964000000000000000000000000000000000000000000000060648201526084015b60405180910390fd5b61026533610b5f565b6102f0576040517f08c379a0000000000000000000000000000000000000000000000000000000008152602060048201526024808201527f596f7520646f6e277420686176652061636365737320746f206164642070726f60448201527f64756374000000000000000000000000000000000000000000000000000000006064820152608401610253565b600180600082825461030291906110c2565b90915550506000878152600560209081526040909120865161032c92600290920191880190610d34565b50600087815260056020908152604090912088815560038101869055875161035c92600190920191890190610d34565b506001805460008981526005602081905260409182902060048101939093559190910180547fffffffffffffffffffffffff00000000000000000000000000000000000000001633908117909155915490517fbbed7f49f072220e395de941dfbf585236440f79095c90c1f6fb536c4ab5c043926103e4928b928b928b928b9290919061101c565b60405180910390a16040518060800160405280604381526020016111a860439139979650505050505050565b60056020526000908152604090208054600182018054919291610432906110ff565b80601f016020809104026020016040519081016040528092919081815260200182805461045e906110ff565b80156104ab5780601f10610480576101008083540402835291602001916104ab565b820191906000526020600020905b81548152906001019060200180831161048e57829003601f168201915b5050505050908060020180546104c0906110ff565b80601f01602080910402602001604051908101604052809291908181526020018280546104ec906110ff565b80156105395780601f1061050e57610100808354040283529160200191610539565b820191906000526020600020905b81548152906001019060200180831161051c57829003601f168201915b50505050600383015460048401546005909401549293909290915073ffffffffffffffffffffffffffffffffffffffff1686565b6004602052600090815260409020805460018201805491929161058f906110ff565b80601f01602080910402602001604051908101604052809291908181526020018280546105bb906110ff565b80156106085780601f106105dd57610100808354040283529160200191610608565b820191906000526020600020905b8154815290600101906020018083116105eb57829003601f168201915b50505050600283015460039093015491929173ffffffffffffffffffffffffffffffffffffffff16905084565b60025460609073ffffffffffffffffffffffffffffffffffffffff1633146106df576040517f08c379a000000000000000000000000000000000000000000000000000000000815260206004820152603560248201527f596f7520617265206e6f7420746865207472756573742070617274792e20426560448201527f7474657220747279206e6578742074696d65203a4400000000000000000000006064820152608401610253565b82803b1561076f576040517f08c379a000000000000000000000000000000000000000000000000000000000815260206004820152602960248201527f547275737465642070617274792077616c6c657420616464726573732069732060448201527f6e6f742076616c696400000000000000000000000000000000000000000000006064820152608401610253565b82803b156107ff576040517f08c379a000000000000000000000000000000000000000000000000000000000815260206004820152602960248201527f547275737465642070617274792077616c6c657420616464726573732069732060448201527f6e6f742076616c696400000000000000000000000000000000000000000000006064820152608401610253565b8373ffffffffffffffffffffffffffffffffffffffff168573ffffffffffffffffffffffffffffffffffffffff1614156108bd57604080517f08c379a00000000000000000000000000000000000000000000000000000000081526020600482015260248101919091527f54727573746564207061727479206164647265737320616e6420696e6475737460448201527f72792077616c6c657420616464726573732063616e6e6f742062652073616d656064820152608401610253565b6108c685610c5c565b610952576040517f08c379a000000000000000000000000000000000000000000000000000000000815260206004820152602760248201527f596f7520617265206e6f7420616c6c6f77656420746f2061646420616e79206960448201527f6e647573747279000000000000000000000000000000000000000000000000006064820152608401610253565b73ffffffffffffffffffffffffffffffffffffffff8085166000818152600460205260409020600301549091161415610a0d576040517f08c379a000000000000000000000000000000000000000000000000000000000815260206004820152602b60248201527f5468697320696e64757374727920697320616c7265616479206578697374732060448201527f696e20746865206c6973740000000000000000000000000000000000000000006064820152608401610253565b6001600080828254610a1f91906110c2565b909155505073ffffffffffffffffffffffffffffffffffffffff841660009081526004602090815260409091208881558751610a6392600190920191890190610d34565b506000805473ffffffffffffffffffffffffffffffffffffffff8616808352600460205260408084206002810193909355600392830180547fffffffffffffffffffffffff0000000000000000000000000000000000000000908116841790915583546001810185559385527fc2575a0e9e593c00f959f8c92f12db2869c3395a3b0502d05e2516446f71f85b9093018054909316909117909155905490517fca95f90b7f721f1e8412147adc497446b0dad584df2481cd3e910d66099cb12b91610b33918a918a91899061107c565b60405180910390a16040518060600160405280603481526020016111eb60349139979650505050505050565b73ffffffffffffffffffffffffffffffffffffffff80821660008181526004602052604081206003015490921614610c19576040517f08c379a000000000000000000000000000000000000000000000000000000000815260206004820152602e60248201527f596f7520617265206e6f74207065726d697474656420746f2063616c6c20746860448201527f69732066756e6374696f6e203a440000000000000000000000000000000000006064820152608401610253565b73ffffffffffffffffffffffffffffffffffffffff8083166000818152600460205260409020600301549091161415610c5457506001919050565b506000919050565b60025460009073ffffffffffffffffffffffffffffffffffffffff838116911614610d09576040517f08c379a000000000000000000000000000000000000000000000000000000000815260206004820152602e60248201527f596f7520617265206e6f74207065726d697474656420746f2063616c6c20746860448201527f69732066756e6374696f6e203a440000000000000000000000000000000000006064820152608401610253565b60025473ffffffffffffffffffffffffffffffffffffffff83811691161415610c5457506001919050565b828054610d40906110ff565b90600052602060002090601f016020900481019282610d625760008555610da8565b82601f10610d7b57805160ff1916838001178555610da8565b82800160010185558215610da8579182015b82811115610da8578251825591602001919060010190610d8d565b50610db4929150610db8565b5090565b5b80821115610db45760008155600101610db9565b600082601f830112610ddd578081fd5b813567ffffffffffffffff80821115610df857610df8611153565b604051601f83017fffffffffffffffffffffffffffffffffffffffffffffffffffffffffffffffe0908116603f01168101908282118183101715610e3e57610e3e611153565b81604052838152866020858801011115610e56578485fd5b8360208701602083013792830160200193909352509392505050565b600060208284031215610e83578081fd5b8135610e8e81611182565b9392505050565b600060208284031215610ea6578081fd5b5035919050565b60008060008060808587031215610ec2578283fd5b84359350602085013567ffffffffffffffff811115610edf578384fd5b610eeb87828801610dcd565b9350506040850135610efc81611182565b91506060850135610f0c81611182565b939692955090935050565b600080600080600060a08688031215610f2e578081fd5b85359450602086013567ffffffffffffffff80821115610f4c578283fd5b610f5889838a01610dcd565b95506040880135915080821115610f6d578283fd5b50610f7a88828901610dcd565b935050606086013591506080860135610f9281611182565b809150509295509295909350565b60008151808452815b81811015610fc557602081850181015186830182015201610fa9565b81811115610fd65782602083870101525b50601f017fffffffffffffffffffffffffffffffffffffffffffffffffffffffffffffffe0169290920160200192915050565b602081526000610e8e6020830184610fa0565b86815260c06020820152600061103560c0830188610fa0565b82810360408401526110478188610fa0565b60608401969096525050608081019290925273ffffffffffffffffffffffffffffffffffffffff1660a0909101529392505050565b8481526080602082015260006110956080830186610fa0565b905083604083015273ffffffffffffffffffffffffffffffffffffffff8316606083015295945050505050565b600082198211156110fa577f4e487b710000000000000000000000000000000000000000000000000000000081526011600452602481fd5b500190565b600181811c9082168061111357607f821691505b6020821081141561114d577f4e487b7100000000000000000000000000000000000000000000000000000000600052602260045260246000fd5b50919050565b7f4e487b7100000000000000000000000000000000000000000000000000000000600052604160045260246000fd5b73ffffffffffffffffffffffffffffffffffffffff811681146111a457600080fd5b5056fe5375636365737366756c6c79206164646564207468652070726f6475637420696e666f726d6174696f6e20696e20426c6f636b636861696e2e20436865657273202121496e647573747279207375636365737366756c6c7920616464656420696e20426c6f636b636861696e2e20436865657273202121a26469706673582212206e551c65ae44523d34213282e86e90347de07a684ed8ea24d4f02f3eaf4ea5e964736f6c63430008040033",
  "linkReferences": {},
  "deployedLinkReferences": {}
}