{
  "address": "0x94B7bc126F13E6eB62F67C438c1D5955fb6a2bA0",
  "abi": [
    {
      "inputs": [
        {
          "internalType": "address payable",
          "name": "_trustedParty",
          "type": "address"
        },
        {
          "internalType": "uint256",
          "name": "_currentIndustryId",
          "type": "uint256"
        },
        {
          "internalType": "uint256",
          "name": "_currentProductId",
          "type": "uint256"
        }
      ],
      "stateMutability": "nonpayable",
      "type": "constructor"
    },
    {
      "anonymous": false,
      "inputs": [
        {
          "indexed": false,
          "internalType": "uint256",
          "name": "insdustryId",
          "type": "uint256"
        },
        {
          "indexed": false,
          "internalType": "string",
          "name": "insdustryName",
          "type": "string"
        },
        {
          "indexed": false,
          "internalType": "uint256",
          "name": "insdustryID",
          "type": "uint256"
        },
        {
          "indexed": false,
          "internalType": "address payable",
          "name": "industryWalletAddress",
          "type": "address"
        }
      ],
      "name": "industryAdded",
      "type": "event"
    },
    {
      "anonymous": false,
      "inputs": [
        {
          "indexed": false,
          "internalType": "uint256",
          "name": "foodID",
          "type": "uint256"
        },
        {
          "indexed": false,
          "internalType": "string",
          "name": "productExpiurationDate",
          "type": "string"
        },
        {
          "indexed": false,
          "internalType": "string",
          "name": "nameOfOwner",
          "type": "string"
        },
        {
          "indexed": false,
          "internalType": "uint256",
          "name": "productAmount",
          "type": "uint256"
        },
        {
          "indexed": false,
          "internalType": "uint256",
          "name": "currentProductId",
          "type": "uint256"
        },
        {
          "indexed": false,
          "internalType": "address",
          "name": "addedBy",
          "type": "address"
        }
      ],
      "name": "productAdded",
      "type": "event"
    },
    {
      "inputs": [
        {
          "internalType": "uint256",
          "name": "_insdustryId",
          "type": "uint256"
        },
        {
          "internalType": "string",
          "name": "_insdustryName",
          "type": "string"
        },
        {
          "internalType": "address payable",
          "name": "_trustedParty",
          "type": "address"
        },
        {
          "internalType": "address payable",
          "name": "_industryWalletAddress",
          "type": "address"
        }
      ],
      "name": "createIndustries",
      "outputs": [],
      "stateMutability": "payable",
      "type": "function"
    },
    {
      "inputs": [],
      "name": "currentIndustryId",
      "outputs": [
        {
          "internalType": "uint256",
          "name": "",
          "type": "uint256"
        }
      ],
      "stateMutability": "view",
      "type": "function"
    },
    {
      "inputs": [],
      "name": "currentProductId",
      "outputs": [
        {
          "internalType": "uint256",
          "name": "",
          "type": "uint256"
        }
      ],
      "stateMutability": "view",
      "type": "function"
    },
    {
      "inputs": [
        {
          "internalType": "uint256",
          "name": "",
          "type": "uint256"
        }
      ],
      "name": "industries",
      "outputs": [
        {
          "internalType": "uint256",
          "name": "insdustryId",
          "type": "uint256"
        },
        {
          "internalType": "string",
          "name": "insdustryName",
          "type": "string"
        },
        {
          "internalType": "uint256",
          "name": "insdustryID",
          "type": "uint256"
        },
        {
          "internalType": "address payable",
          "name": "industryWalletAddress",
          "type": "address"
        }
      ],
      "stateMutability": "view",
      "type": "function"
    },
    {
      "inputs": [
        {
          "internalType": "uint256",
          "name": "",
          "type": "uint256"
        }
      ],
      "name": "productInfo",
      "outputs": [
        {
          "internalType": "uint256",
          "name": "foodId",
          "type": "uint256"
        },
        {
          "internalType": "string",
          "name": "productExpiurationDate",
          "type": "string"
        },
        {
          "internalType": "string",
          "name": "nameOfOwner",
          "type": "string"
        },
        {
          "internalType": "uint256",
          "name": "productAmount",
          "type": "uint256"
        },
        {
          "internalType": "uint256",
          "name": "currentProductId",
          "type": "uint256"
        },
        {
          "internalType": "address",
          "name": "addedBy",
          "type": "address"
        }
      ],
      "stateMutability": "view",
      "type": "function"
    },
    {
      "inputs": [
        {
          "internalType": "uint256",
          "name": "_foodId",
          "type": "uint256"
        },
        {
          "internalType": "string",
          "name": "_productExpiurationDate",
          "type": "string"
        },
        {
          "internalType": "string",
          "name": "_nameOfOwner",
          "type": "string"
        },
        {
          "internalType": "uint256",
          "name": "_productAmount",
          "type": "uint256"
        },
        {
          "internalType": "address payable",
          "name": "_industryWalletAddress",
          "type": "address"
        }
      ],
      "name": "storeProductInfo",
      "outputs": [],
      "stateMutability": "payable",
      "type": "function"
    }
  ],
  "transactionHash": "0x087671ddb0ac1d794830a35d1de057527bba80ef2fb8ea7012d7a1fd98181917",
  "args": [
    "0xb9884b3aB614E60ED29f6d803b85255c8D46b91d",
    0,
    0
  ],
  "numDeployments": 1,
  "solcInputHash": "3719740a6b01e45117d2a2b8ab437891",
  "bytecode": "0x608060405234801561001057600080fd5b506040516110ae3803806110ae83398101604081905261002f9161005b565b600280546001600160a01b0319166001600160a01b03949094169390931790925560005560015561009c565b60008060006060848603121561006f578283fd5b83516001600160a01b0381168114610085578384fd5b602085015160409095015190969495509392505050565b611003806100ab6000396000f3fe6080604052600436106100655760003560e01c8063a0e5964b11610043578063a0e5964b146100d8578063b38a8e65146100ee578063bb119f6e1461010157600080fd5b8063524196ec1461006a5780636b946e401461009357806371c7a895146100c3575b600080fd5b34801561007657600080fd5b5061008060005481565b6040519081526020015b60405180910390f35b34801561009f57600080fd5b506100b36100ae366004610cfb565b610133565b60405161008a9493929190610ec7565b6100d66100d1366004610d13565b61020e565b005b3480156100e457600080fd5b5061008060015481565b6100d66100fc366004610d79565b6106bb565b34801561010d57600080fd5b5061012161011c366004610cfb565b610a01565b60405161008a96959493929190610e67565b6003818154811061014357600080fd5b6000918252602090912060049091020180546001820180549193509061016890610f4a565b80601f016020809104026020016040519081016040528092919081815260200182805461019490610f4a565b80156101e15780601f106101b6576101008083540402835291602001916101e1565b820191906000526020600020905b8154815290600101906020018083116101c457829003601f168201915b50505050600283015460039093015491929173ffffffffffffffffffffffffffffffffffffffff16905084565b60025473ffffffffffffffffffffffffffffffffffffffff1633146102ba576040517f08c379a000000000000000000000000000000000000000000000000000000000815260206004820152603560248201527f596f7520617265206e6f7420746865207472756573742070617274792e20426560448201527f7474657220747279206e6578742074696d65203a44000000000000000000000060648201526084015b60405180910390fd5b81803b1561034a576040517f08c379a000000000000000000000000000000000000000000000000000000000815260206004820152602960248201527f547275737465642070617274792077616c6c657420616464726573732069732060448201527f6e6f742076616c6964000000000000000000000000000000000000000000000060648201526084016102b1565b81803b156103da576040517f08c379a000000000000000000000000000000000000000000000000000000000815260206004820152602960248201527f547275737465642070617274792077616c6c657420616464726573732069732060448201527f6e6f742076616c6964000000000000000000000000000000000000000000000060648201526084016102b1565b8273ffffffffffffffffffffffffffffffffffffffff168473ffffffffffffffffffffffffffffffffffffffff16146106055761041684610b5e565b1561057d57600160008082825461042d9190610f0d565b9091555050604080516080810182528781526020808201888152600080549484019490945273ffffffffffffffffffffffffffffffffffffffff87166060840152600380546001810182559452825160049094027fc2575a0e9e593c00f959f8c92f12db2869c3395a3b0502d05e2516446f71f85b8101948555905180519394936104e1937fc2575a0e9e593c00f959f8c92f12db2869c3395a3b0502d05e2516446f71f85c909301929190910190610b99565b506040828101516002830155606090920151600390910180547fffffffffffffffffffffffff00000000000000000000000000000000000000001673ffffffffffffffffffffffffffffffffffffffff90921691909117905560005490517fca95f90b7f721f1e8412147adc497446b0dad584df2481cd3e910d66099cb12b9161057091899189918890610ec7565b60405180910390a16106b3565b6040517f08c379a000000000000000000000000000000000000000000000000000000000815260206004820152602560248201527f596f7520617265206e6f7420616c6c6f77656420746f2061646420696e64757360448201527f747269657300000000000000000000000000000000000000000000000000000060648201526084016102b1565b6040517f08c379a000000000000000000000000000000000000000000000000000000000815260206004820152604260248201527f54727573746564207061727479206164647265737320616e6420696e6475737460448201527f726965732077616c6c657420616464726573732063616e6e6f7420626520736160648201527f6d65000000000000000000000000000000000000000000000000000000000000608482015260a4016102b1565b505050505050565b80803b1561074b576040517f08c379a000000000000000000000000000000000000000000000000000000000815260206004820152602960248201527f547275737465642070617274792077616c6c657420616464726573732069732060448201527f6e6f742076616c6964000000000000000000000000000000000000000000000060648201526084016102b1565b60005b6003548110156109f8573373ffffffffffffffffffffffffffffffffffffffff16600382815481106107a9577f4e487b7100000000000000000000000000000000000000000000000000000000600052603260045260246000fd5b600091825260209091206003600490920201015473ffffffffffffffffffffffffffffffffffffffff1614801561085857508273ffffffffffffffffffffffffffffffffffffffff166003828154811061082c577f4e487b7100000000000000000000000000000000000000000000000000000000600052603260045260246000fd5b600091825260209091206003600490920201015473ffffffffffffffffffffffffffffffffffffffff16145b1561095e57600180600082825461086f9190610f0d565b90915550506000878152600460209081526040909120865161089992600290920191880190610b99565b5060008781526004602090815260409091208881556003810186905587516108c992600190920191890190610b99565b506001805460008981526004602081905260409182902090810192909255600590910180547fffffffffffffffffffffffff00000000000000000000000000000000000000001633908117909155915490517fbbed7f49f072220e395de941dfbf585236440f79095c90c1f6fb536c4ab5c04392610951928b928b928b928b92909190610e67565b60405180910390a16109e6565b6040517f08c379a000000000000000000000000000000000000000000000000000000000815260206004820152602960248201527f596f7520617265206e6f74207065726d697474656420746f206164642070726f60448201527f6475637420696e666f000000000000000000000000000000000000000000000060648201526084016102b1565b6109f1600182610f0d565b905061074e565b50505050505050565b60046020526000908152604090208054600182018054919291610a2390610f4a565b80601f0160208091040260200160405190810160405280929190818152602001828054610a4f90610f4a565b8015610a9c5780601f10610a7157610100808354040283529160200191610a9c565b820191906000526020600020905b815481529060010190602001808311610a7f57829003601f168201915b505050505090806002018054610ab190610f4a565b80601f0160208091040260200160405190810160405280929190818152602001828054610add90610f4a565b8015610b2a5780601f10610aff57610100808354040283529160200191610b2a565b820191906000526020600020905b815481529060010190602001808311610b0d57829003601f168201915b50505050600383015460048401546005909401549293909290915073ffffffffffffffffffffffffffffffffffffffff1686565b60025460009073ffffffffffffffffffffffffffffffffffffffff83811691161415610b8c57506001919050565b506000919050565b919050565b828054610ba590610f4a565b90600052602060002090601f016020900481019282610bc75760008555610c0d565b82601f10610be057805160ff1916838001178555610c0d565b82800160010185558215610c0d579182015b82811115610c0d578251825591602001919060010190610bf2565b50610c19929150610c1d565b5090565b5b80821115610c195760008155600101610c1e565b803573ffffffffffffffffffffffffffffffffffffffff81168114610b9457600080fd5b600082601f830112610c66578081fd5b813567ffffffffffffffff80821115610c8157610c81610f9e565b604051601f83017fffffffffffffffffffffffffffffffffffffffffffffffffffffffffffffffe0908116603f01168101908282118183101715610cc757610cc7610f9e565b81604052838152866020858801011115610cdf578485fd5b8360208701602083013792830160200193909352509392505050565b600060208284031215610d0c578081fd5b5035919050565b60008060008060808587031215610d28578283fd5b84359350602085013567ffffffffffffffff811115610d45578384fd5b610d5187828801610c56565b935050610d6060408601610c32565b9150610d6e60608601610c32565b905092959194509250565b600080600080600060a08688031215610d90578081fd5b85359450602086013567ffffffffffffffff80821115610dae578283fd5b610dba89838a01610c56565b95506040880135915080821115610dcf578283fd5b50610ddc88828901610c56565b93505060608601359150610df260808701610c32565b90509295509295909350565b60008151808452815b81811015610e2357602081850181015186830182015201610e07565b81811115610e345782602083870101525b50601f017fffffffffffffffffffffffffffffffffffffffffffffffffffffffffffffffe0169290920160200192915050565b86815260c060208201526000610e8060c0830188610dfe565b8281036040840152610e928188610dfe565b60608401969096525050608081019290925273ffffffffffffffffffffffffffffffffffffffff1660a0909101529392505050565b848152608060208201526000610ee06080830186610dfe565b905083604083015273ffffffffffffffffffffffffffffffffffffffff8316606083015295945050505050565b60008219821115610f45577f4e487b710000000000000000000000000000000000000000000000000000000081526011600452602481fd5b500190565b600181811c90821680610f5e57607f821691505b60208210811415610f98577f4e487b7100000000000000000000000000000000000000000000000000000000600052602260045260246000fd5b50919050565b7f4e487b7100000000000000000000000000000000000000000000000000000000600052604160045260246000fdfea264697066735822122029b8f5c4f1c97607c78280ed74d9720df5396d249d610ddfe64040ee3fb90da564736f6c63430008040033",
  "devdoc": {
    "kind": "dev",
    "methods": {},
    "version": 1
  },
  "userdoc": {
    "kind": "user",
    "methods": {},
    "version": 1
  },
  "storageLayout": {
    "storage": [
      {
        "astId": 3,
        "contract": "contracts/ProductValidation.sol:ProductValidation",
        "label": "currentIndustryId",
        "offset": 0,
        "slot": "0",
        "type": "t_uint256"
      },
      {
        "astId": 5,
        "contract": "contracts/ProductValidation.sol:ProductValidation",
        "label": "currentProductId",
        "offset": 0,
        "slot": "1",
        "type": "t_uint256"
      },
      {
        "astId": 7,
        "contract": "contracts/ProductValidation.sol:ProductValidation",
        "label": "trustedParty",
        "offset": 0,
        "slot": "2",
        "type": "t_address_payable"
      },
      {
        "astId": 33,
        "contract": "contracts/ProductValidation.sol:ProductValidation",
        "label": "industries",
        "offset": 0,
        "slot": "3",
        "type": "t_array(t_struct(Industry)29_storage)dyn_storage"
      },
      {
        "astId": 38,
        "contract": "contracts/ProductValidation.sol:ProductValidation",
        "label": "productInfo",
        "offset": 0,
        "slot": "4",
        "type": "t_mapping(t_uint256,t_struct(product)20_storage)"
      }
    ],
    "types": {
      "t_address": {
        "encoding": "inplace",
        "label": "address",
        "numberOfBytes": "20"
      },
      "t_address_payable": {
        "encoding": "inplace",
        "label": "address payable",
        "numberOfBytes": "20"
      },
      "t_array(t_struct(Industry)29_storage)dyn_storage": {
        "base": "t_struct(Industry)29_storage",
        "encoding": "dynamic_array",
        "label": "struct ProductValidation.Industry[]",
        "numberOfBytes": "32"
      },
      "t_mapping(t_uint256,t_struct(product)20_storage)": {
        "encoding": "mapping",
        "key": "t_uint256",
        "label": "mapping(uint256 => struct ProductValidation.product)",
        "numberOfBytes": "32",
        "value": "t_struct(product)20_storage"
      },
      "t_string_storage": {
        "encoding": "bytes",
        "label": "string",
        "numberOfBytes": "32"
      },
      "t_struct(Industry)29_storage": {
        "encoding": "inplace",
        "label": "struct ProductValidation.Industry",
        "members": [
          {
            "astId": 22,
            "contract": "contracts/ProductValidation.sol:ProductValidation",
            "label": "insdustryId",
            "offset": 0,
            "slot": "0",
            "type": "t_uint256"
          },
          {
            "astId": 24,
            "contract": "contracts/ProductValidation.sol:ProductValidation",
            "label": "insdustryName",
            "offset": 0,
            "slot": "1",
            "type": "t_string_storage"
          },
          {
            "astId": 26,
            "contract": "contracts/ProductValidation.sol:ProductValidation",
            "label": "insdustryID",
            "offset": 0,
            "slot": "2",
            "type": "t_uint256"
          },
          {
            "astId": 28,
            "contract": "contracts/ProductValidation.sol:ProductValidation",
            "label": "industryWalletAddress",
            "offset": 0,
            "slot": "3",
            "type": "t_address_payable"
          }
        ],
        "numberOfBytes": "128"
      },
      "t_struct(product)20_storage": {
        "encoding": "inplace",
        "label": "struct ProductValidation.product",
        "members": [
          {
            "astId": 9,
            "contract": "contracts/ProductValidation.sol:ProductValidation",
            "label": "foodId",
            "offset": 0,
            "slot": "0",
            "type": "t_uint256"
          },
          {
            "astId": 11,
            "contract": "contracts/ProductValidation.sol:ProductValidation",
            "label": "productExpiurationDate",
            "offset": 0,
            "slot": "1",
            "type": "t_string_storage"
          },
          {
            "astId": 13,
            "contract": "contracts/ProductValidation.sol:ProductValidation",
            "label": "nameOfOwner",
            "offset": 0,
            "slot": "2",
            "type": "t_string_storage"
          },
          {
            "astId": 15,
            "contract": "contracts/ProductValidation.sol:ProductValidation",
            "label": "productAmount",
            "offset": 0,
            "slot": "3",
            "type": "t_uint256"
          },
          {
            "astId": 17,
            "contract": "contracts/ProductValidation.sol:ProductValidation",
            "label": "currentProductId",
            "offset": 0,
            "slot": "4",
            "type": "t_uint256"
          },
          {
            "astId": 19,
            "contract": "contracts/ProductValidation.sol:ProductValidation",
            "label": "addedBy",
            "offset": 0,
            "slot": "5",
            "type": "t_address"
          }
        ],
        "numberOfBytes": "192"
      },
      "t_uint256": {
        "encoding": "inplace",
        "label": "uint256",
        "numberOfBytes": "32"
      }
    }
  }
}